:020000040800F2
:10000000D0050020990100086F100008150F0008A6
:100010006D10000805020008F1140008000000003F
:1000200000000000000000000000000001010008C6
:10003000070200080000000045010008E111000867
:10004000B3010008B3010008B3010008B3010008C0
:10005000B3010008B3010008B3010008B3010008B0
:10006000B3010008B3010008B3010008B3010008A0
:10007000B3010008B3010008B3010008B301000890
:10008000B3010008B3010008B3010008B301000880
:10009000B3010008B3010008B3010008B301000870
:1000A000B3010008B3010008B3010008B301000860
:1000B000A5120008B3010008B3010008B30100084D
:1000C000B3010008B3010008B3010008B301000840
:1000D000B3010008B3010008B3010008B301000830
:1000E000B3010008B3010008B3010008DFF80CD029
:1000F00000F076F80048004753160008D0050020AD
:10010000224B19680868B0E8F00F80F30988BFF344
:100110006F8F4FF0000080F311884EF00D0E704786
:100120000000000006480068006880F3088862B696
:1001300061B6BFF34F8FBFF36F8F00DF00BF00BF0B
:1001400008ED00E0EFF30980BFF36F8F0F4B1A68E3
:1001500020E9F00F106008B54FF0500080F31188CF
:10016000BFF34F8FBFF36F8F01F0B4FA4FF0000071
:1001700080F31188BDE8084019680868B0E8F00FFE
:1001800080F30988BFF36F8F704700BF2400002001
:10019000EFF3058070470000064880470648004797
:1001A000FEE7FEE7FEE7FEE7FEE7FEE7FEE7FEE727
:1001B000FEE7FEE75D120008ED000008D2B201E0A4
:1001C00000F8012B491EFBD270470022F6E710B55C
:1001D00013460A4604461946FFF7F0FF204610BDB5
:1001E000064C074D06E0E06840F0010394E8070084
:1001F00098471034AC42F6D3FFF77CFF1018000884
:1002000030180008FEE770477047000070B50446DC
:1002100000F0F6F80546601C02D00448007804445B
:1002200000F0EEF8401BA042FAD370BD140000208D
:100230002DE9F84FDFF890A100220AF1040B1446D3
:1002400001274FF00F090BF1040E00BF0B6807FAEE
:1002500004F52B40AB4274D1DFF870C14E68A6EBB9
:100260000C0866452BD00DDC032E34D005DC36B3EC
:10027000012E19D0022E2FD11BE0112E16D0122ED6
:100280002AD119E0B8F5881F19D006DCB8F5803FEF
:1002900015D0B8F5801F1FD111E0B8F5001F0ED0A2
:1002A000B8F5041F18D10AE0CA6815E0CA68121D23
:1002B00012E0CA6808320FE0CA680C320CE08A68A3
:1002C0002AB1012A4FF0080203D0456104E004225C
:1002D00002E0056100E00022FF2B01D8064601E0A4
:1002E00000F104064FEA840501D9A5F12005D6F8EE
:1002F00000C009FA05F82CEA080C02FA05F54CEAE8
:10030000050CC6F800C04D68ED0057D5304DAE69FC
:1003100046F00106AE61AD6924F0030605F0010563
:1003200000952C4D06EB050CDCF80850A6074FEAAB
:10033000167809FA08F6B543274EB04202D10026D6
:1003400010E03BE0254EB04201D101260AE0244EE8
:10035000B04201D1022605E0224EB04201D103266F
:1003600000E0042606FA08F62E43CCF808604D6833
:10037000DAF80060ED03554601D51E4300E09E43C8
:100380002E604D68DBF80060AD035D4601D51E436D
:1003900000E09E432E604D68DEF80060ED02754679
:1003A00001D51E4300E09E432E604D68AD020E4D08
:1003B0002E6801D51E4300E09E432E60641C102C65
:1003C000FFF444AFBDE8F88F0004014000001110B5
:1003D000001002400000014000080140000C0140F4
:1003E00000100140001401400C04014080680840E6
:1003F00000D0012070470AB1016170470904FBE792
:10040000014880687047000014000020024881689D
:10041000027811448160704714000020074810B52D
:10042000016841F010010160032000F093F8002002
:1004300000F006F800F03EF8002010BD0020024059
:1004400000B5014687B000221C2000F063F81C2094
:1004500000F054F81448C16941F00101C161C0695C
:1004600005A900F001000690684600F03BF900F095
:1004700059F90E494000B0FBF1F10D484FF08042B0
:10048000491E0260416040F2E7320021C0E90321C9
:10049000816000F021FB10B1012007B000BD0448CD
:1004A00000F036FBF9E700000010024040420F0068
:1004B000A00000200F4808B5816941F00101816169
:1004C000816901F001010091C16941F08051C16170
:1004D000C069002200F0805000900F21901E00F0B3
:1004E00019F80548416821F0E06141F00071416070
:1004F00008BD0000001002400000014000F01F0293
:10050000012191404009800000F1E020C0F8001175
:1005100070470000F0B40E4B1B680C46C3F3022377
:10052000C3F10705042D00D90425191D072901D29F
:10053000002300E0DB1E012606FA05F1491E2140DA
:1005400099409E40761E16403143F0BC00F090BDAD
:100550000CED00E0064900F0070208684FF6FF03C3
:10056000184040EA0220034A104308607047000028
:100570000CED00E00000FA052DE9F047DFF85481AA
:1005800005460E46D8F8000000F00700B0420CD235
:10059000D8F8001021F007013143C8F80010D8F84E
:1005A000000000F00700B0426FD128684A4C810774
:1005B00012D5400703D5606840F4E0606060287899
:1005C000000703D5606840F4605060606068A96807
:1005D00020F0F000084360602878C00744D06868C5
:1005E000012816D02168022816D0890700294CDA84
:1005F000616821F0030101436160FFF701FF696851
:10060000074641F2883001290ED00229814618D0D0
:1006100026E021688903E9E78901E7E7FFF7F0FEB3
:10062000C11B494501D918E081466068C0F38100CB
:100630000128F3D118E000BFFFF7E2FEC11B4945D6
:100640000BD86068C0F381000228F5D10CE000BF30
:10065000FFF7D6FEC11B494502D90320BDE8F0874C
:10066000606810F00C0FF3D1D8F80010404601F08C
:100670000701B1420BD9016821F007013143016044
:10068000006800F00700B04201D00120E6E72878BA
:10069000400705D56068E96820F4E06008436060C1
:1006A0002878000706D56068296920F4605040EA80
:1006B000C100606000F056F86168084AC1F3031198
:1006C000515CC840064908600020FFF7B9FE0020D1
:1006D000C4E700000020024000100240F8170008A4
:1006E000200000200F2202600C4A536803F003032D
:1006F0004360536803F0F0038360536803F4E063DE
:10070000C36052684FF4E06303EAD2020261044816
:10071000006800F007000860704700000010024009
:10072000002002400448054900684968044AC1F3B2
:100730000221515CC8407047200000200010024098
:10074000081800080448054900684968044AC1F3CC
:10075000C221515CC84070472000002000100240B8
:100760000818000812A185B00FC98DE80F0014A069
:10077000144A006804905168134801F00C03042BDC
:1007800010D0082B0ED1C1F38343C9031DF8030019
:100790000AD5516804AAC1F34041515C0A4A50434A
:1007A000B0FBF1F005B0704708494843FAE7000094
:1007B00002030405060708090A0B0C0D0E0F1010A2
:1007C000010200000010024000127A0000093D0002
:1007D0002DE9F84F04460078B94DC00748D0686845
:1007E000C0F38100012807D06868C0F381000228A7
:1007F00009D16868C00306D52868800338D56068C9
:1008000000286FD034E06068B0F5803F0BD010B1A5
:10081000B0F5A02F11D0286820F480302860286817
:1008200020F4802002E0286840F48030286060686E
:1008300088B1FFF7E5FD064609E0286840F480200E
:100840002860F0E7FFF7DCFD801B642875D8286876
:100850008003F7D50CE0FFF7D3FD064605E000BFA7
:10086000FFF7CEFD801B6428F0D828688003F7D4FA
:100870002078944E80074FF001094FF000083BD5D7
:10088000686810F00C0F07D06868C0F38100022878
:1008900009D16868C00306D42868800714D5206988
:1008A00001281FD110E02069B0B1C6F80090FFF711
:1008B000A7FD074605E000BFFFF7A2FDC01B022809
:1008C000C4D828688007F7D52868616920F0F80047
:1008D00040EAC10028600FE0C6F80080FFF790FDF5
:1008E000074606E0E9E000BFFFF78AFDC01B0228CB
:1008F00023D828688007F7D4207800072CD57248C1
:10090000A169D9B1C0F80090FFF77AFD074604E06D
:10091000FFF776FDC01B02280FD8686A8007F7D55D
:100920006A484FF4FA510068B0FBF1F0009000BF44
:100930000098411E0091FAD20EE080E0C0F80080DD
:10094000FFF75EFD074604E0FFF75AFDC01B0228D3
:1009500075D8686A8007F7D42078400760D5E869C1
:100960000027C00008D4E86940F08050E861E869D9
:10097000012700F08050009055480168C90513D444
:100980000168834641F480710160FFF739FD8246BA
:1009900006E000BFFFF734FDA0EB0A0064284ED844
:1009A000DBF80000C005F5D5E06801280AD008B1E1
:1009B000052813D0286A20F001002862286A20F058
:1009C000040002E0286A40F001002862E06841F279
:1009D000883B98B1FFF714FD82460BE0286A40F08F
:1009E00004002862EEE700BFFFF70AFDA0EB0A0152
:1009F00059455AD8286A8007F6D50CE0FFF700FD64
:100A0000824605E0FFF7FCFCA0EB0A0159454CD8F3
:100A1000286A8007F6D41FB1E86920F08050E861A9
:100A2000E06988B36968C1F38101022945D00228D1
:100A3000C6F8608004D0FFF7E3FC044638E034E0F9
:100A4000FFF7DEFC074604E0FFF7DAFCC01B0228D4
:100A50002BD828688001F7D4206AB0F5803F05D1F3
:100A60006868A16820F4003008436860D4E9080190
:100A70000843696821F4741108436860C6F86090FF
:100A8000FFF7BEFC044606E015E000BFFFF7B8FC28
:100A9000001B022809D828688001F7D50BE000BFA9
:100AA000FFF7AEFC001B022802D90320BDE8F88F37
:100AB00028688001F4D40020F8E70120F6E7000060
:100AC0000010024000004242800442422000002008
:100AD000007000407047704710B5040003D094F8D0
:100AE0003D0010B107E0012010BD002084F83C005B
:100AF000204600F00CF8022084F83D00211D2068FB
:100B000000F0D6FB012084F83D00002010BD7047A6
:100B10000168CA6842F00102CA600068016841F0D9
:100B20000101016000207047704770B504460068FD
:100B300001694FF00005C943890715D4C168C9434D
:100B4000890711D4E91E016101202077206880699E
:100B50008007204602D0FFF7E7FF04E000F098F896
:100B6000204600F096F8257720680169C9434907B7
:100B700017D4C168C943490713D46FF00401016158
:100B8000022020772068806910F4407F204602D040
:100B9000FFF7CAFF04E000F07BF8204600F079F888
:100BA000257720680169C943090716D4C168C9437C
:100BB000090712D46FF00801016104202077206832
:100BC000C0698007204602D0FFF7AEFF04E000F0C6
:100BD0005FF8204600F05DF8257720680169C94379
:100BE000C90617D4C168C943C90613D46FF01001F0
:100BF0000161082020772068C06910F4407F2046FA
:100C000002D0FFF791FF04E000F042F8204600F028
:100C100040F8257720680169C943C90708D1C16830
:100C2000C943C90704D1891E0161204600F032F88A
:100C300020680169C943090609D4C168C943090686
:100C400005D46FF0800101612046FFF743FF206863
:100C50000169C943490609D4C168C943490605D495
:100C60006FF040010161204600F01BF82068016927
:100C7000C94389060BD4C168C943890607D46FF0FC
:100C8000200101612046BDE87040FFF724BF70BD20
:100C9000704770470068B0F1804F01D1FFF7B6BBD5
:100CA0007047704770B5040004D094F839000025EF
:100CB00010B106E0012070BD84F83850204600F0E5
:100CC00023F8242084F839002068C16821F40051F9
:100CD000C160204600F022FB2068016921F49041A8
:100CE00001612068416921F02A0141612068C168E1
:100CF00041F40051C160E563202084F8390084F894
:100D00003A00002070BD000030B585B0002400948A
:100D100001940294039400681449884224D1144831
:100D2000816941F480418161816901F480410491CC
:100D3000816941F00401816180690E4D00F0040079
:100D400004904FF400700090022001900320039063
:100D500069462846FFF76CFA2815CDE90004694674
:100D600028460294FFF764FA05B030BD0038014010
:100D700000100240000801402DE9F843044690F8B5
:100D800039001F4616460D46202850D1A5B19EB108
:100D900094F8380001284AD0012084F838004FF038
:100DA0000008C4F83C80212084F83900FFF728FBB4
:100DB000A6848146E68426E00120BDE8F883E08C25
:100DC000401EE084A0684B46B0F5805F4FF0000203
:100DD0004FF080012046009703D000F057FBE8B9A0
:100DE0000DE000F053FBC8B928882168C0F3080063
:100DF0004860206908B16D1C05E0AD1C03E0216866
:100E000015F8010B4860E08C0028D8D14B46002231
:100E100040212046009700F039FB08B10320CCE7C1
:100E2000202084F8390084F838800020C5E70220AB
:100E3000C3E7000010B50221012000F05BFB012197
:100E4000022000F057FB41F22861052000F052FB20
:100E500046F2A001052000F04DFB40F69801052068
:100E600000F048FB4EF29001052000F043FB00210A
:100E7000052000F03FFB1449062000F03BFB40F248
:100E80004D11072000F036FB1049082000F032FB1E
:100E90000F49092000F02EFB42F246010A2000F023
:100EA00029FB0C490B2000F025FB81210F2000F0CD
:100EB00021FB3421032000F01DFBBDE81040064952
:100EC000042000F017BB00004A0B2000FFBEC10049
:100ED000FD7E550021C00700CDCC6C0010B512205E
:100EE00000F0D6F80949FF220A230A70020E4A7060
:100EF000020C8A70020ACA700871AF204871BDE8FE
:100F0000104006220248FFF737BF00000000002013
:100F100060000020FEE7000010B5114C00221021F7
:100F20002046FFF768FA002280212046FFF763FA87
:100F30000120FFF76BF9012210212046FFF75BFA31
:100F4000012280212046FFF756FAFFF773FF642045
:100F5000FFF75CF9002000F09BF80249886010BDA3
:100F6000000C014008000020F0B585B000242C489A
:100F70000094019402940394816941F020018161FD
:100F8000816901F020010491816941F008018161CA
:100F9000816901F008010491816941F004018161D6
:100FA000816901F004010491816941F010018161BE
:100FB00080691C4F00F010004FF44065049000223F
:100FC00029463846FFF717FA0420CDE900046946A0
:100FD00038460294FFF72CF9009502260125039666
:100FE000CDE9015469463846FFF722F96803CDE997
:100FF000000569460C480295FFF71AF9B0208DE804
:101000006100694638460396FFF712F940208DE8E3
:10101000310069463846FFF70BF905B0F0BD000016
:1010200000100240000C01400010014010B50E4CB1
:101030000C480C2120604FF4E13060600020A0607B
:10104000E060C4E90401A061E0612046FFF72AFEE8
:1010500008B1FFF7D9F82068C16841F01001C160FC
:1010600010BD00000038014060000020FEE770471E
:101070000907090E002806DA00F00F0000F1E02051
:1010800080F8141D704700F1E02080F800147047CC
:101090002DE9F041044600F055F8A006284C070E53
:1010A000002280212046FFF7A6F9002507FA05F067
:1010B000000601D5012200E0002220212046FFF792
:1010C0009AF9012280212046FFF795F9022000F0CD
:1010D000B8FA002280212046FFF78DF9022000F0A7
:1010E000B0FA6D1CEDB2062DE0D30025012280215F
:1010F0002046FFF780F9022000F0A3FA40212046A5
:10110000FFF774F90643172D00D2760001228021E3
:101110002046FFF770F9022000F093FA00228021A8
:101120002046FFF768F9022000F08BFA6D1CEDB243
:10113000182DDBD300F038F83046BDE8F081000010
:10114000000C014010B5174C002210212046FFF77B
:1011500052F9002220212046FFF74DF9002280217C
:101160002046FFF748F9012210212046FFF743F9F6
:10117000012220212046FFF73EF9022000F061FA0B
:10118000012280212046FFF736F9022000F059FAAB
:10119000002280212046FFF72EF9BDE810400220F2
:1011A00000F04FBA000C014010B50C4C0122802118
:1011B0002046FFF720F9022000F043FA0022102118
:1011C0002046FFF718F9022000F03BFA20460022E3
:1011D000BDE810408021FFF70EB90000000C01406F
:1011E00010B5502080F31188BFF34F8FBFF36F8F7E
:1011F00000F09EFA18B104494FF0805008600020BA
:1012000080F3118810BD000004ED00E030B58FB010
:1012100028216846FEF7D9FF14210AA8FEF7D5FF5A
:1012200001210804CDE90010002402940225049154
:10123000CDE907504FF4E01009906846FFF7C8FA6F
:101240000F20CDE90A056802CDE90C4002210AA869
:101250000E94FFF791F90FB030BD00000D48016802
:1012600041F00101016041680B4A11404160016891
:101270000A4A11400160016821F48021016041683F
:1012800021F4FE0141604FF41F0181600449C00355
:1012900008607047001002400000FFF8FFFFF6FEF4
:1012A00008ED00E00148FFF740BC0000A00000206E
:1012B000F0B50268164B174C174D4FF08047984217
:1012C00005D0B84203D0A04201D0A84203D122F0F9
:1012D00070064A683243984205D0B84203D0A04213
:1012E00001D0A84203D122F44074CA68224322F0FC
:1012F00080044A69224302608A68C2620A68826284
:10130000984201D10969016301214161F0BD0000EA
:10131000002C014000040040000800402DE9F0418D
:10132000044600680169E26821F4405111430161FB
:101330002169A0680843616908432168CA6841F2CD
:101340000C639A430243CA6020684169A26921F490
:101350004071114341614C4920686425322688421E
:101360003CD1FFF7EFF900EBC00101EB0010616821
:101370008900B0FBF1F7FFF7E5F900EBC00101EBE5
:1013800000106168B0468900B0FBF1F0B0FBF5F0E9
:101390006FF01801484307EB800106EB0110B0FB2A
:1013A000F5F000F0F006FFF7CDF900EBC00101EB1E
:1013B000001061688900B0FBF1F0B0FBF5F006EBBE
:1013C0000016FFF7BFF900EBC00101EB00106168E8
:1013D0008900B0FBF1F7FFF7B5F93BE0FFF7A2F9A1
:1013E00000EBC00101EB001061688900B0FBF1F770
:1013F000FFF798F900EBC00101EB00106168B046FF
:101400008900B0FBF1F0B0FBF5F06FF01801484334
:1014100007EB800106EB0110B0FBF5F000F0F006E1
:10142000FFF780F900EBC00101EB00106168890053
:10143000B0FBF1F0B0FBF5F006EB0016FFF772F928
:1014400000EBC00101EB001061688900B0FBF1F70F
:10145000FFF768F900EBC00101EB0010616889003B
:10146000B0FBF1F0B0FBF5F06FF01801484307EB6B
:10147000800108EB0110B0FBF5F0216800F00F00CF
:1014800030448860BDE8F081003801402DE9F0412A
:10149000984617460E460446069D1DE0681C1BD064
:1014A0002DB1FEF7ADFFA0EB0800A84214D92068CB
:1014B000C16821F4D071C1602068416921F0010147
:1014C0004161202084F8390084F83A00002084F833
:1014D00038000320BDE8F0812068006836EA00008B
:1014E00004D00020B842D9D00020F3E70120F9E76A
:1014F000FEE700002DE9F0410C46054600F04EF8ED
:10150000A806070E244E002507FA05F0000601D5AF
:10151000012200E0002220213046FEF76CFF00226D
:1015200080213046FEF767FF032000F08AF8012291
:1015300080213046FEF75FFF032000F082F86D1C2B
:10154000EDB2062DE0D300272402002514FA05F0A1
:1015500001D5012200E0002220213046FEF74BFF9A
:10156000002280213046FEF746FF022000F069F895
:10157000012280213046FEF73EFF022000F061F894
:101580006D1CEDB2082DE1D37F1CFFB2032FDBD31E
:10159000BDE8F04100F030B8000C014010B5154C2A
:1015A000002210212046FEF726FF0022202120469F
:1015B000FEF721FF002280212046FEF71CFF00BF1E
:1015C000012210212046FEF716FF00BF0022202135
:1015D0002046FEF710FF00BF012280212046FEF7C3
:1015E0000AFF00BF002280212046FEF704FF00BF53
:1015F00010BD0000000C014010B5094C00228021F4
:101600002046FEF7F8FE00BF012280212046FEF7AB
:10161000F2FE002210212046FEF7EDFE00BF10BDB5
:10162000000C014002E008C8121F08C1002AFAD1CC
:1016300070477047002001E001C1121F002AFBD152
:101640007047002102E000BF491CC9B28142FAD3B1
:101650007047FEF7E3FEFFF7D9FDFFF785FCFFF7C4
:10166000E5FCC820FEF7D2FDFFF756FC6420FEF72C
:10167000CDFDFFF733FCFCE70648416B096829B153
:10168000416BC968C9684968816270474FF0FF3192
:10169000FAE7000024000020D0E9013201699A60D5
:1016A000D0E901235A604A68824201D182684A60C7
:1016B000002202610868401E0860704742684A6064
:1016C00093688B6093685960916008610168491C58
:1016D000016070471448016B11B10121C16170476D
:1016E0000021C1610169B1FA81F1C1F11F0101EB72
:1016F00081020E4951F822306BB101EB820101F1F8
:1017000008034A6852684A609A4201D152684A60A6
:10171000D16801607047502080F31188BFF34F8F6C
:10172000BFF36F8FFEE7000024000020E0000020E0
:101730002DE9F0412E4C0027206B40B1A069401CE0
:10174000A061E06900B101273846BDE8F081E66894
:10175000761CE66013D1606B006838B1502080F3CE
:101760001188BFF34F8FBFF36F8FFEE7606BA16BE4
:101770006163A063206A401C2062FFF77DFFA06ABE
:10178000DFF87080864209D3606B006880B1606BBF
:10179000C068C568686886420DD2A0622068C06AC9
:1017A00000EB800158F821000128CAD90127C8E7B9
:1017B0004FF0FF30F1E7281DFFF76EFFA86A18B160
:1017C00005F11800FFF768FFE86A012122698140EE
:1017D0001143216100EB800108EB8100291DFFF717
:1017E0006DFFE86A2168C96A8842CDD30127CBE73B
:1017F00024000020E00000200000000000000000A5
:1018000001020304060708090000000001020304A6
:1018100030180008000000206000000024160008B6
:1018200090180008600000207005000034160008C1
:10183000000000000000000004010000D2000000D1
:101840000000000001000000100000000000000087
:1018500000A24A0400000000000000000000000098
:101860000000000000000000000000000000000078
:101870000000000000000000000000000000000068
:101880000000000000000000000000000000000058
:04000005080000ED02
:00000001FF
